:100000000C9424030C944C030C944C030C944C035C
:100010000C944C030C944C030C944C030C944C0324
:100020000C944C030C944C030C944C030C944C0314
:100030000C944C030C944C030C944C030C944C0304
:100040000C94C50E0C944C030C94A1060C947B06E6
:100050000C944C030C944C030C944C030C944C03E4
:100060000C94D3060C944C030C944C030C944C034A
:100070000C944C030C944C030C944C030C944C03C4
:100080000C944C030C944C030C944C030C944C03B4
:100090000C944C030C944C030C944C030C944C03A4
:1000A0000C944C030C944C030C944C030C944C0394
:1000B0000C944C03CC0BCF0BC20BC60BF00BF00B0C
:1000C000D30BD70BDD0BE10BF00BE70BEB0B0000B9
:1000D0000000003E5B4F5B3E3E6B4F6B3E1C3E7C28
:1000E0003E1C183C7E3C181C577D571C1C5E7F5ED6
:1000F0001C00183C1800FFE7C3E7FF001824180095
:10010000FFE7DBE7FF30483A060E2629792926402B
:100110007F050507407F05253F5A3CE73C5A7F3E57
:100120001C1C08081C1C3E7F14227F22145F5F00E9
:100130005F5F06097F017F006689956A6060606085
:100140006094A2FFA29408047E040810207E201070
:1001500008082A1C08081C2A08081E101010100C79
:100160001E0C1E0C30383E3830060E3E0E060000C7
:1001700000000000005F00000007000700147F146B
:100180007F14242A7F2A12231308646236495620DA
:10019000500008070300001C2241000041221C00FF
:1001A0002A1C7F1C2A08083E0808008070300008BE
:1001B00008080808000060600020100804023E5192
:1001C00049453E00427F4000724949494621414924
:1001D0004D331814127F1027454545393C4A49498B
:1001E0003141211109073649494936464949291EF5
:1001F00000001400000040340000000814224114E4
:1002000014141414004122140802015909063E4135
:100210005D594E7C1211127C7F494949363E41415D
:1002200041227F4141413E7F494949417F090909B6
:10023000013E414151737F0808087F00417F410022
:100240002040413F017F081422417F404040407FD1
:10025000021C027F7F0408107F3E4141413E7F091E
:100260000909063E4151215E7F091929462649495F
:10027000493203017F01033F4040403F1F2040209F
:100280001F3F4038403F631408146303047804039D
:100290006159494D43007F4141410204081020004B
:1002A0004141417F040201020440404040400003BC
:1002B00007080020545478407F2844443838444488
:1002C0004428384444287F385454541800087E0980
:1002D0000218A4A49C787F0804047800447D4000A0
:1002E0002040403D007F1028440000417F40007CBA
:1002F000047804787C080404783844444438FC18B2
:1003000024241818242418FC7C0804040848545495
:10031000542404043F44243C4040207C1C204020C2
:100320001C3C4030403C44281028444C9090907C29
:100330004464544C4400083641000000770000003B
:100340004136080002010204023C2623263C1EA17D
:10035000A161123A4040207A3854545559215555DC
:10036000794122545478422155547840205455798B
:10037000400C1E527212395555555939545454591E
:1003800039555454580000457C410002457D4200D7
:1003900001457C407D1211127DF0282528F07C5407
:1003A0005545002054547C547C0A097F4932494900
:1003B00049323A4444443A324A4848303A41412169
:1003C0007A3A42402078009DA0A07D3D4242423DC5
:1003D0003D4040403D3C24FF2424487E4943662B59
:1003E0002FFC2F2BFF0929F620C0887E09032054FB
:1003F0005479410000447D413048484A32384040F9
:10040000227A007A0A0A727D0D19317D2629292F58
:1004100028262929292630484D4020380808080870
:1004200008080808382F10C8ACBA2F102834FA0072
:10043000007B000008142A142222142A14085500F4
:10044000550055AA55AA55AAFF55FF55FF000000B3
:10045000FF00101010FF00141414FF001010FF0014
:10046000FF1010F010F0141414FC001414F700FF27
:100470000000FF00FF1414F404FC141417101F10E4
:10048000101F101F1414141F00101010F000000093
:10049000001F101010101F10101010F0100000009E
:1004A000FF101010101010101010FF10000000FFAF
:1004B000140000FF00FF00001F10170000FC04F4F0
:1004C00014141710171414F404F40000FF00F714A8
:1004D000141414141414F700F7141414171410102F
:1004E0001F101F141414F4141010F010F000001F4B
:1004F000101F0000001F14000000FC140000F0108A
:10050000F01010FF10FF141414FF141010101F002F
:10051000000000F010FFFFFFFFFFF0F0F0F0F0FF31
:10052000FFFF0000000000FFFF0F0F0F0F0F384408
:10053000443844FC4A4A4A347E02020606027E02DD
:100540007E0263554941633844443C04407E201E8A
:100550002006027E020299A5E7A5991C2A492A1CB9
:100560004C7201724C304A4D4D303048784830BCA6
:10057000625A463D3E494949007E0101017E2A2AD0
:100580002A2A2A44445F444440514A444040444A51
:1005900051400000FF0103E080FF000008086B6B82
:1005A000083612362436060F090F06000018180008
:1005B00000001010003040FF0101001F01011E006B
:1005C000191D1712003C3C3C3C00000000000A0DC5
:1005D0000E090003020000040508000000000000EE
:1005E00000000000000000000000000000230026C2
:1005F0000029002C0000000000240027002A002D04
:100600000000000000250028002B002E000102043D
:100610000810204080010204081020010204081084
:10062000204080400102040804040404040404047B
:100630000202020202020303030303030202030590
:10064000050505008219761911241FBECFEFD8E0E9
:10065000DEBFCDBF14E0A0E0B1E0E4E6F2E402C00A
:1006600005900D92A83BB107D9F727E0A8EBB4E0BD
:1006700001C01D92AC3DB207E1F713E0C3E2D3E045
:1006800004C02197FE010E94B91FC232D107C9F7E9
:100690000E940F0F0C9425210C940000CF92DF9242
:1006A000EF92FF920F931F93CF93DF936C017A0128
:1006B0008B01C0E0D0E0CE15DF0581F0D8016D914F
:1006C0008D01D601ED91FC910190F081E02DC601E4
:1006D0000995892B11F02196EECF7E01C701DF919C
:1006E000CF911F910F91FF90EF90DF90CF900895E1
:1006F000FC01918D828D981761F0828DDF01A80F2A
:10070000B11D5D968C91928D9F5F9F73928F90E04B
:1007100008958FEF9FEF0895FC01918D828D9817BA
:1007200031F0828DE80FF11D858D90E008958FEFF7
:100730009FEF0895FC01918D228D892F90E0805CC0
:100740009F4F821B91098F73992708958DED95E036
:100750000E949A0321E0892B09F420E0822F08955A
:10076000FC01848DDF01A80FB11DA35ABF4F2C914E
:10077000848D90E001968F739927848FA689B7891D
:100780002C93A089B1898C9180648C93938D848DF6
:10079000981306C00288F389E02D80818F7D8083C5
:1007A0000895EF92FF920F931F93CF93DF93EC0185
:1007B00081E0888F9B8D8C8D981305C0E889F9891D
:1007C000808185FD24C0F62E0B8D10E00F5F1F4F3A
:1007D0000F731127E02E8C8DE8120CC00FB607FCAA
:1007E000FACFE889F989808185FFF5CFCE010E9493
:1007F000B003F1CF8B8DFE01E80FF11DE35AFF4FDF
:10080000F0820B8FEA89FB898081806207C0EE89C4
:10081000FF896083E889F98980818064808381E031
:1008200090E0DF91CF911F910F91FF90EF9008958D
:10083000CF93DF93EC01888D8823C9F0EA89FB8987
:10084000808185FD05C0A889B9898C9186FD0FC07E
:100850000FB607FCF5CF808185FFF2CFA889B98953
:100860008C9185FFEDCFCE010E94B003E7CFDF91E1
:10087000CF91089580E090E0892B21F00E94A6039B
:1008800081110DC080E090E0892B71F080E090E054
:10089000892B51F00E940000811104C008950E942C
:1008A0000000F0CF0C940000089585ED8093BC000B
:1008B0008091BC0084FDFCCF1092BA05089561328E
:1008C00098F42091BA05243089F460934505282FC7
:1008D000A5E2B5E0FC018E2F821B861718F48191EA
:1008E0008D93F9CF80E0089581E0089582E0089526
:1008F000089508950895E091BC058091BB05E8171F
:1009000030F4F0E0E354FA4F808190E008958FEFE7
:100910009FEF08959091BC058091BB05981750F406
:10092000E92FF0E0E354FA4F208130E09F5F90938D
:10093000BC0502C02FEF3FEFC90108958091BB05B0
:1009400090E02091BC05821B91090895CF92DF921F
:10095000EF92FF920F931F93CF93DF937C01CB0114
:100960008A0120917005222389F0EB016B01C40EEE
:10097000D51ECC15DD0569F06991D701ED91FC918B
:100980000190F081E02DC7010995F3CF642F0E94FB
:100990005F04C801DF91CF911F910F91FF90EF90FD
:1009A000DF90CF900895CF93DF931F92CDB7DEB73E
:1009B0006983209170052223D1F020919305203284
:1009C00040F021E030E0FC013383228380E090E0BE
:1009D00015C080917105E82FF0E0EE58FA4F99812B
:1009E00090838F5F809371058093930505C061E0CC
:1009F000CE0101960E945F0481E090E00F90DF91AC
:100A0000CF9108959C01FC01EA5BFF4F9081D901D1
:100A1000AB5BBF4F8C91981748F4D901A90FB11D5A
:100A200095962C9130E09F5F908302C02FEF3FEFAF
:100A3000C9010895FC01EA5BFF4F208131973081A5
:100A4000231730F4FC01E20FF11D85A190E0089519
:100A50008FEF9FEF0895FC01EB5BFF4F208130E0AB
:100A600031968081A901481B5109CA0108950E944D
:100A7000F420CF92DF92EF92FF920F931F93CF93C8
:100A8000DF93EC01EC89FD8990818E858095892327
:100A900080838F8D882331F0E889F98990818E8554
:100AA000892B8083EE89FF8990818F8580958923AA
:100AB00080838F8D882331F0EA89FB8990818F852F
:100AC000892B808388A1811107C08D8D9E8D009711
:100AD000F9F00E948B0E1CC00E94B90E6B017C01C4
:100AE000EA8DFB8D90818F85892379F70E94B90E5D
:100AF000DC01CB018C199D09AE09BF0909A11AA11E
:100B00002BA13CA180179107A207B30748F3DDCFC3
:100B1000E88DF98D90818E85892311E009F410E02C
:100B2000EA89FB8990818F85809589238083EE896E
:100B3000FF8990818F85892B80838D8D9E8D009775
:100B400011F00E948B0E812FDF91CF911F910F9199
:100B5000FF90EF90DF90CF900895CF92DF92EF92C9
:100B6000FF920F931F93CF93DF93EC018E8561115A
:100B700009C0E889F9899081809589238083EC896F
:100B8000FD890BC0EC89FD89908180958923808344
:100B90008F8D882331F0E889F98990818E85892BA2
:100BA00080838D8D9E8D009711F00E948B0EEE89B3
:100BB000FF8990818F858095892380838F8D8823FD
:100BC00031F0EA89FB8990818F85892B808388A108
:100BD000811107C08D8D9E8D0097F9F00E948B0EBC
:100BE0001CC00E94B90E6B017C01EA8DFB8D9081C7
:100BF0008F85892379F70E94B90EDC01CB018C190E
:100C00009D09AE09BF0909A11AA12BA13CA180171A
:100C10009107A207B30748F3DDCFEA89FB899081EA
:100C20008F85809589238083EE89FF8990818F85C8
:100C3000892B80838D8D9E8D009751F0DF91CF9110
:100C40001F910F91FF90EF90DF90CF900C948B0E3F
:100C5000DF91CF911F910F91FF90EF90DF90CF9098
:100C600008950F931F93CF93DF93EC01062F8C8D84
:100C7000811112C018E0602F6078CE010E94AD058E
:100C8000000F1150C1F7CE010E943905811102C039
:100C90001C8E02C082E08C8F81E090E0DF91CF91CA
:100CA0001F910F91089591E09093700592E49093B5
:100CB00092051092710510929305880F990B8396F7
:100CC0000E941C0D0E946A0D81E090E00E94210D9F
:100CD0009091BB058091BC05981741F08AE796E09A
:100CE0000E948A0421E0892B21F402C01092BE04E4
:100CF00020E0822F08951F920F920FB60F921124B9
:100D00002F933F934F935F936F937F938F939F9313
:100D1000AF93BF93EF93FF938DED95E00E94B003E7
:100D2000FF91EF91BF91AF919F918F917F916F91C3
:100D30005F914F913F912F910F900FBE0F901F9099
:100D400018951F920F920FB60F9211242F938F9325
:100D50009F93EF93FF93E091ED05F091EE05808175
:100D6000E091F305F091F40582FD12C0908180912D
:100D7000F6058F5F8F732091F705821751F0E09190
:100D8000F605F0E0E352FA4F958F8093F60501C027
:100D90008081FF91EF919F918F912F910F900FBEC6
:100DA0000F901F9018951F920F920FB60F9211245B
:100DB0002F933F934F935F936F937F938F939F9363
:100DC000AF93BF93EF93FF938091B900887F8036F4
:100DD00009F49CC068F5883209F45BC090F4803156
:100DE00009F454C038F4882309F4F6C0883009F4B3
:100DF0004DC0F6C0883109F44CC0803209F45DC0A2
:100E0000EFC0803409F468C048F4803309F455C059
:100E1000883309F0E5C08093B805D8C0803509F45F
:100E20004FC0883509F45DC0883409F0D9C0D6C0F8
:100E3000883909F4C7C0A8F4883709F467C038F4C2
:100E4000883609F463C0803709F460C0C9C08838A7
:100E500009F4B8C0803909F45FC0803809F0C0C017
:100E60005BC0803B09F486C038F4803A09F466C060
:100E7000883A09F47FC0B4C0803C09F4A7C0883C1C
:100E800009F4A4C0883B09F48AC0AAC08091B505C2
:100E900010C09091B7058091B605981770F5E09154
:100EA000B70581E08E0F8093B705F0E0EC56FA4F5E
:100EB00080818093BB0085EC86C08093B8058EC08E
:100EC000E091B70581E08E0F8093B7058091BB005C
:100ED000F0E0EC56FA4F80839091B7058091B6050B
:100EE0006EC0E091B70581E08E0F8093B7058091C9
:100EF000BB00F0E0EC56FA4F80838091B905811178
:100F00006DC081E08093B40584EA61C083E0809382
:100F1000BA0510926705CFCF80916705803208F03F
:100F200051C0E091670581E08E0F80936705809145
:100F3000BB00F0E0E95BFA4F8083BDCF85EC809386
:100F4000BC001092BA0580916705803230F4E091C0
:100F50006705F0E0E95BFA4F10826091670570E089
:100F6000E091B804F091B90487E495E009951092F6
:100F7000670536C084E08093BA051092460510924A
:100F80004505E091BA04F091BB04099580914505AF
:100F9000811105C081E08093450510922505E091FF
:100FA000460581E08E0F80934605F0E0EB5DFA4F39
:100FB00080818093BB0090914605809145059817EC
:100FC00008F479CF85E88093BC000AC085EC809353
:100FD000BC001092BA0504C01092B8050E945504D6
:100FE000FF91EF91BF91AF919F918F917F916F9101
:100FF0005F914F913F912F910F900FBE0F901F90D7
:1010000018950F931F93CF93DF938C01C62FCC0FAE
:10101000D8E06C2F6078C8010E94AD05CC0FD1508C
:10102000C1F7C8010E943905811103C0F801148E6F
:1010300003C082E0F801848FDF91CF911F910F915F
:101040000895CF92DF92EF92FF920F931F93CF9369
:10105000DF93EC01EA89FB8990818F858095892354
:101060008083EE89FF8990818F85892B8083E88931
:10107000F98990818E85809589238083EC89FD890B
:1010800090818E85892B80838D8D9E8D009711F0A8
:101090000E948B0EEE89FF8990818F858095892330
:1010A00080838F8D882331F0EA89FB8990818F8539
:1010B000892B808388A1811107C08D8D9E8D00971B
:1010C000F9F00E948B0E1CC00E94B90E6B017C01CE
:1010D000EA8DFB8D90818F85892379F70E94B90E67
:1010E000DC01CB018C199D09AE09BF0909A11AA128
:1010F0002BA13CA180179107A207B30748F3DDCFCE
:10110000EC89FD8990818E858095892380838F8DE0
:10111000882331F0E889F98990818E85892B808335
:101120008D8D9E8D009751F0DF91CF911F910F9182
:10113000FF90EF90DF90CF900C948B0EDF91CF91CA
:101140001F910F91FF90EF90DF90CF900895CF9374
:10115000DF93EC01EC89FD8990818E858095892350
:1011600080838F8D882331F0E889F98990818E857D
:10117000892B8083EE89FF8990818F8580958923D3
:1011800080838F8D882331F0EA89FB8990818F8558
:10119000892B80838D8D9E8D009711F00E948B0E80
:1011A000E88DF98D9081EA8DFB8D20818F858223DA
:1011B00059F18E85982339F1E889F98990818095D4
:1011C00089238083EC89FD8990818E85892B80839A
:1011D0008D8D9E8D009711F00E948B0EEA89FB8900
:1011E00090818F85809589238083EE89FF89908106
:1011F0008F85892B80838D8D9E8D009711F00E94A5
:101200008B0E81E001C080E0DF91CF910895FC0159
:101210008AE891E091838083178EA489B5899C9197
:101220008685809589238C93878D882331F0A089CA
:10123000B1899C918685892B8C93A689B7899C91CD
:101240008785809589238C93878D882331F0A289A7
:10125000B3899C918785892B8C930895CF92DF92D7
:10126000EF92FF92CF93C0902105D0902205E0909D
:101270002305F09024056C157D058E059F0529F04A
:10128000611571058105910511F44423E1F1C22F27
:101290006B017C01609321057093220580932305E7
:1012A0009093240581E08093700582E480939205F9
:1012B000109271051092930580E290E00E941C0D3F
:1012C0008C2F90E00E941C0DB701992777FD909517
:1012D000892F8AE796E00E94D3049927F7FC9A9514
:1012E0008F2D7E2D6D2D8AE796E00E94D3046C2D04
:1012F0008AE796E00E94D304CF91FF90EF90DF90B1
:10130000CF900C946A0DCF91FF90EF90DF90CF902B
:1013100008958F929F92AF92BF92CF92DF92EF92F9
:10132000FF921F93CF93DF9390910601992309F4C5
:1013300046C1D42F162FC82FC0901D05D0901E0572
:10134000E0901F05F090200584EFC80E81E0D81EC4
:10135000E11CF11C0E94B90EC616D706E806F90674
:1013600010F011112CC10E94B90E60931D057093ED
:101370001E0580931F059093200511E01093BE0475
:1013800081E00E9453068093BC0482E00E945306D1
:101390008093BD041093700582E4809392051092AF
:1013A00071051092930581E290E00E941C0D0E944D
:1013B0006A0D83E090E00E94210D9091BB05809121
:1013C000BC05981759F18AE796E00E948A046C01DF
:1013D0008AE796E00E948A047C018AE796E00E94F0
:1013E0008A049C01C601DD0CAA0BBB0BDC0199270A
:1013F00088276701FF0CEE08FF08FE2CED2CDC2C83
:10140000CC24C80ED91EEA1EFB1EC901330FAA0B3D
:10141000BB0BC80ED91EEA1EFB1E05C01092BE04EF
:10142000C12CD12C7601EDEFF4E0119285E0ED3185
:10143000F807D9F781E08093700582E480939205E4
:10144000109271051092930583E290E00E941C0DAA
:101450000E946A0D80E290E00E94210D9091BB05F0
:101460008091BC059817A9F08AE796E00E948A044B
:10147000B82E10E01B157CF48AE796E00E948A04DF
:10148000E12F012E000CFF0BE350FB4F80831F5F09
:10149000F1CF1092BE048DEF94E02091FD04222341
:1014A000D9F020918007211110C02FEF20938007E1
:1014B000909328078093270780EE91E0909383070D
:1014C000809382071092810707C0909383078093CF
:1014D00082078FEF80938107DD2309F46EC080902F
:1014E000F9049090FA04A090FB04B090FC0480E111
:1014F000880E87E2981EA11CB11C0E94B90E8616A8
:101500009706A806B90608F058C0D1E080910701F7
:10151000811107C020E041E060E070E0CB010E9453
:101520002E09CC2369F08091F5049091F604A091E6
:10153000F704B091F8048C159D05AE05BF0511F4B4
:10154000DD23E9F10E94B90E6093F9047093FA0467
:101550008093FB049093FC04C092F504D092F604AF
:10156000E092F704F092F804C0921107D0921207AB
:10157000E0921307F092140781E090E09093160731
:10158000809315071092170710921E0710921F07DD
:10159000109220071092210720E041E0C701B60118
:1015A000DF91CF911F91FF90EF90DF90CF90BF9090
:1015B000AF909F908F900C942E09D0E0A7CFDF9131
:1015C000CF911F91FF90EF90DF90CF90BF90AF90A1
:1015D0009F908F900895CF93DF93DC01FB01828170
:1015E000938113969C938E931297448155816681C3
:1015F000778114964D935D936D937C9317974085F7
:1016000051856285738518964D935D936D937C9398
:101610001B9784851C968C931C9785851D968C93AF
:101620001D9786851E968C931E9787851F968C9393
:101630001F978089918951969C938E9350978289A8
:10164000938953969C938E93529784899589559646
:101650009C938E9354978689978957969C938E93E3
:101660005697808D918D59969C938E935897828D25
:10167000938D5B969C938E935A97848D5C968C93F6
:101680005C97858D968D5E969C938E935D97878DE6
:101690005F968C935F9780A190968C93909741A1D1
:1016A00052A163A174A191964D935D936D937C9328
:1016B0009497BD016B5D7F4FCF0185969D012B5B9C
:1016C0003F4FEC014991CE01EB014993BE01C21796
:1016D000D307B9F7CF018B5B9F4FEC018881EB01FA
:1016E0008883EA5BFF4F8081FD01EA5BFF4F8083C7
:1016F000CD01DF91CF9108950F931F93CF93DF9387
:10170000C6E2D7E018861F8208EE13E020E030E042
:1017100009871A872B873C872AE831E03E832D838F
:101720006B83BC018BE297E00E94EB0A80E68C831E
:1017300010927E0786E990E0A0E0B0E080938407F5
:1017400090938507A0938607B093870780EE91E07A
:101750009A8389832FEF2093800790938307809348
:10176000820710928107DF91CF911F910F91089509
:1017700090E0FC013297ED30F10590F5E65AFF4F0D
:101780000C94B91F809180008F7703C080918000F6
:101790008F7D80938000089584B58F7702C084B5D3
:1017A0008F7D84BD08958091B0008F7703C08091B4
:1017B000B0008F7D8093B0000895809190008F7766
:1017C00003C0809190008F7D809390000895809158
:1017D000A0008F7703C08091A0008F7D8093A00030
:1017E00008951F93CF93DF93D82FC62F10918806AB
:1017F0001092A6068AE896E00E94A708882331F096
:10180000612F8AE896E00E94010803C084E080937B
:10181000A6066D2F8AE896E00E9431066C2F8AE8B2
:1018200096E00E9431068AE896E0DF91CF911F9101
:101830000C942108CF93C82F65EC8EEF0E94F10B1A
:101840006C2F8DEFCF910C94F10B4F925F926F92B2
:101850007F928F929F92AF92BF92CF92DF92EF9240
:10186000FF920F931F93CF93DF936091190770E05E
:1018700080E090E00E94AA1E20E030E04FE753E4B1
:101880000E94091E6B017C0101ED16E0C0E080E1C1
:10189000882E8C0E90E2992E9C0E5801D0E0F50116
:1018A00041905190619071905F01642D70E080E0F3
:1018B00090E00E94AC1EA70196010E94381F0E9472
:1018C0007B1E8C2F8D2B0E94F10B652D70E080E02C
:1018D00090E00E94AC1EA70196010E94381F0E9452
:1018E0007B1E882D8D2B0E94F10B662D70E080E011
:1018F00090E00E94AC1EA70196010E94381F0E9432
:101900007B1E8D2F89290E94F10BDE5FD83039F6BE
:10191000005F1F4FC05DC03C09F0B9CFDF91CF9190
:101920001F910F91FF90EF90DF90CF90BF90AF90FD
:101930009F908F907F906F905F904F900895CF937E
:10194000DF93282F30E0F901E253FA4F8491F90137
:10195000E35FF94FD491F901E85DF94FC491CC23CD
:1019600089F081110E94B80BEC2FF0E0EE0FFF1F01
:10197000EF5FF94FA591B4918FB7F894EC91ED2BEF
:10198000EC938FBFDF91CF910895E2E7F7E01192DA
:1019900087E0EE37F807D9F710922807109227074B
:1019A0001092800780EE91E09093830780938207E6
:1019B0001092810708951F93CF93DF93D82FC62FDE
:1019C00010912A07109247078BE297E00E94A70820
:1019D000882331F0612F8BE297E00E94010803C059
:1019E00084E0809347076D2F8BE297E00E943106D9
:1019F0006C2F8BE297E00E9431068BE297E0DF913B
:101A0000CF911F910C9421080F931F93CF938C01BA
:101A100080E0F80161918F01C1E0C80F863010F4B9
:101A20008C2F01C0885F0E94DB0C8C2FCC3089F793
:101A3000CF911F910F910895682F8AE796E00C943B
:101A4000D3049091BA059111FCCF982F813208F000
:101A500090E281E08093BA058093B9052FEF20933F
:101A6000B8051092B705290F2093B6058093B505E8
:101A70008091B50584688093B5058091B405813067
:101A800061F41092B4058091B5058093BB008091FC
:101A9000BC0083FDF8CF85EC01C085EE8093BC00CF
:101AA0008091BA058130E1F38091B705891710F470
:101AB0009091B705E4E9F5E0ADEBB5E080E089177A
:101AC00021F021912D938F5FFACF1092BC05809366
:101AD000BB05089530919305313208F04BC08091D9
:101AE000BA058111FCCF9091920522E02093BA05AE
:101AF00021E02093B9052FEF2093B8051092B70588
:101B00003093B605E2E7F5E0A4E9B5E020E032174E
:101B100021F041914D932F5FFACF1092B50520919E
:101B2000B505990F922B9093B5059091B40591301E
:101B300061F41092B4059091B5059093BB0090911B
:101B4000BC0093FDF8CF95EC01C095EE9093BC00DE
:101B50009091BA059230E1F39091B8059F3F79F0EA
:101B60008091B805803241F08091B805803331F022
:101B700084E005C081E003C082E001C083E01092F0
:101B8000710510929305109270050895009769F001
:101B9000FC0101900020E9F73197AF01481B590B78
:101BA000BC018DED95E00C944E0380E090E008952B
:101BB0000C94C60DCF93DF93282F30E0F901E25348
:101BC000FA4F8491F901E35FF94FD491F901E85D8F
:101BD000F94FC491CC2391F081110E94B80BEC2FE6
:101BE000F0E0EE0FFF1FE751FA4FA591B491EC9191
:101BF000ED2381E090E021F480E002C080E090E0FD
:101C0000DF91CF910895CF93DF9390E0FC01E35FE4
:101C1000F94F2491FC01E85DF94F8491882361F12B
:101C200090E0880F991FFC01EB50FA4FC591D491B9
:101C3000FC01EF5FF94FA591B491611109C09FB705
:101C4000F8948881209582238883EC912E230BC001
:101C5000623061F49FB7F8948881322F30958323E6
:101C60008883EC912E2B2C939FBF06C08FB7F894DE
:101C7000E8812E2B28838FBFDF91CF9108951F938A
:101C8000CF93DF93162FC6E8D6E01F821E8248EE60
:101C900053E060E070E0488759876A877B872AE8CD
:101CA00031E03D832C831B8320E52A83BC018AE835
:101CB00096E00E94EB0A1092110710921207109200
:101CC00013071092140781E090E090931607809319
:101CD00015078FEF8093170786E990E0A0E0B0E04A
:101CE00080931A0790931B07A0931C07B0931D07BE
:101CF00010921E0710921F071092200710922107C2
:101D0000198218821092180761E0812FDF91CF911C
:101D10001F910C94030E8330910528F0880F991FB2
:101D200004970197F1F708953FB7F89480916C05F7
:101D300090916D05A0916E05B0916F0526B5A89B99
:101D400005C02F3F19F00196A11DB11D3FBFBA2F4D
:101D5000A92F982F8827820F911DA11DB11DBC01AD
:101D6000CD0143E0660F771F881F991F4A95D1F771
:101D700008952FB7F8946091680570916905809176
:101D80006A0590916B052FBF08951F920F920FB6B1
:101D90000F9211242F933F938F939F93AF93BF93F1
:101DA0008091680590916905A0916A05B0916B05D5
:101DB0003091D30726E0230F2D3720F40296A11D82
:101DC000B11D05C029E8230F0396A11DB11D209365
:101DD000D3078093680590936905A0936A05B09333
:101DE0006B0580916C0590916D05A0916E05B09189
:101DF0006F050196A11DB11D80936C0590936D0533
:101E0000A0936E05B0936F05BF91AF919F918F9195
:101E10003F912F910F900FBE0F901F901895CF9369
:101E2000DF93CDB7DEB7AC970FB6F894DEBF0FBE29
:101E3000CDBF789484B5826084BD84B5816084BD53
:101E400085B5826085BD85B5816085BD80916E0058
:101E5000816080936E001092810080918100826089
:101E600080938100809181008160809381008091C6
:101E700080008160809380008091B10084608093B5
:101E8000B1008091B00081608093B000809191009A
:101E90008260809391008091910081608093910095
:101EA000809190008160809390008091A100826079
:101EB0008093A1008091A10081608093A100809116
:101EC000A00081608093A00080917A00846080935C
:101ED0007A0080917A00826080937A0080917A0003
:101EE0008E7F80937A0080917A00806880937A0058
:101EF0001092C100E091ED05F091EE0582E0808343
:101F0000E091E905F091EA051082E091EB05F0918E
:101F1000EC0587E680831092F505E091F105F091DC
:101F2000F20586E08083E091EF05F091F005808175
:101F300080618083E091EF05F091F00580818860F9
:101F40008083E091EF05F091F005808180688083C7
:101F5000E091EF05F091F00580818F7D808381EA2B
:101F600091E00E94D80D8BEA91E00E94D80D8DEB94
:101F700091E00E94D80D60E08EE00E94030E60E0C8
:101F80008FE00E94030E60E080E10E94030E8EE06D
:101F90000E949F0C8FE00E949F0C80E10E949F0C8A
:101FA0001092D1071092D207E091A207F091A307F7
:101FB000908180919B078095892380838091AB07D6
:101FC000882349F0E0919E07F0919F0790818091CE
:101FD0009B07892B80838091A9079091AA0700977E
:101FE00011F00E948B0EE091A007F091A107908163
:101FF00080919A078095892380838091AB078823FD
:1020000049F0E0919C07F0919D07908180919A079B
:10201000892B808314E08091A9079091AA070097EB
:1020200011F00E948B0E1150B1F78091AB078823FD
:1020300031F10E94940E2B013C0142E0842E912C40
:10204000A12CB12C0E94940EDC01CB0184199509BE
:10205000A609B709883E9340A105B10598F321E090
:10206000821A9108A108B10848EE440E43E0541EBC
:10207000611C711C81149104A104B10419F78EEF45
:102080008093BA0088E794E09093BB048093BA04ED
:1020900089E794E09093B9048093B8041092BC054A
:1020A0001092BB0510927105109293051092BA051B
:1020B00081E08093B9051092B40582E10E949F0CE3
:1020C00083E10E949F0C8091B9008E7F8093B900BC
:1020D0008091B9008D7F8093B90080E28093B80031
:1020E00085E48093BC0061E0809129070E94030E83
:1020F00068E180E00E94DB0C60E089E10E94DB0C7B
:10210000109226078EE797E0E2E7F7E011928E172C
:102110009F07E1F782E797E00E94040D60E08CE002
:102120000E94DB0C809129070E949F0C80918906F8
:102130000E949F0C83E00E941A0C60E080E00E94E5
:10214000F10B6FEF81E00E94F10B80E00E941A0C0E
:1021500010E06FEF812F0E94F10B1E5F1831C9F75D
:1021600081E00E941A0C31E1232E37E0332EE1ED9D
:10217000F6E011921192119211922E163F06C9F7B4
:102180000E94250C83E00E941A0C61E080E00E940E
:10219000F10B81E00E941A0C80E4809319078FE014
:1021A000809326076FE089E10E94DB0C0E94C50C3A
:1021B0008BEA91E0909328078093270788E790E0C7
:1021C000A0E0B0E08093840790938507A0938607F2
:1021D000B0938707109288071092890710928A0798
:1021E00010928B0710927E0781E080937F07809387
:1021F000800740E060E00E948909FF24F394CC242A
:10220000C394D12C8091120190911301A0911401DB
:10221000B091150189A79AA7ABA7BCA7DE015D966F
:10222000B8A7AFA30E94B90E809088079090890745
:10223000A0908A07B0908B070091840710918507C2
:102240002091860730918707080D191D2A1D3B1D17
:10225000601771078207930708F47FC040918007D9
:10226000442309F47AC060938807709389078093A8
:102270008A0790938B07E2E7F7E0818181938DE7EE
:1022800097E08E179F07C9F7E0912707F09128077D
:10229000DF010D900020E9F71197AE1BBF0B609195
:1022A0007F0770E06B5F7F4FA69F202D1124309138
:1022B0007E07832F90E00E94A51F009799F02317B7
:1022C00088F0E60FF71F9081EFEFE80F0E2E000C5D
:1022D000FF0BA5E09A02E00DF11D1124E253FF4F20
:1022E000E49101C0E0E0E0937D073F5F632F70E081
:1022F000822F90E00C96861797071CF030937E078C
:1023000024C010927E0714161CF44150409380079D
:1023100080918107882381F090918007191664F0DD
:102320002091820730918307309328072093270755
:102330008093800710928107E0912707F09128078A
:102340008081811102C00E94C50C82E797E00E9443
:10235000040D60E08CE00E94DB0C8FE00E94DA0D3F
:102360005C0180E10E94DA0D4C018EE00E94DA0DE2
:102370008C018091020187FD0DC063EC74E08091B7
:102380002707909128070E940B21892B19F48FEFC2
:10239000809302014090BF045090C0046090C1043B
:1023A0007090C204BAEF4B0E511C611C711C0E944C
:1023B000B90E461657066806790628F58114910469
:1023C00031F0A114B10419F001151105E1F40E94D6
:1023D000B90E6093BF047093C0048093C1049093BE
:1023E000C2048091BD04882309F439C785E0A11493
:1023F000B10409F435C58114910409F431C50115FE
:10240000110509F42DC58DED95E00E949A0318166B
:1024100019060CF02CC28DED95E00E947803082F70
:102420008D3021F48FEF8093F40429C01091F404CF
:10243000883091F411161CF58DED91E00E94D80DB5
:10244000E091F404E150E093F4040E2E000CFF0B35
:10245000EC52FB4F108213C080328CF010327CF4AF
:10246000682F8DED95E00E94D10381E0810F80936C
:10247000F404E12F110FFF0BEC52FB4F008380910E
:10248000F4048F3F09F0F3C18091D404882309F448
:10249000DAC180E2E6E1F1E0DE01119601900D92F1
:1024A0008A95E1F78091D304882309F455C061EE41
:1024B00071E084ED94E00E940B21892B99F1F09258
:1024C000BC04F092700582E480939205109271052D
:1024D0001092930584E290E00E941C0D81E090E050
:1024E0000E941C0D0E946A0D83EF91E00E94D80D9E
:1024F0001092D304A0900401B0900501D5010D9075
:102500000020E9F7CD018A199B090E94D31F8C0195
:10251000B5010E94042180EE91E090930501809323
:1025200004011CC08091D20491E0980F9093D204D2
:1025300083301CF48AE092E084C11092D3048DE1D0
:1025400092E00E94D80D80EE91E090930501809377
:1025500004011092D20477C104ED14E0FE0131961B
:102560005F014F01712CD4016D917C91C8010E94D3
:102570000B21892B09F45CC171102AC066E372E05B
:10258000C8010E940B2121E0009709F420E020936C
:102590000701892B09F057C11092110710921207F9
:1025A0001092130710921407D0921607C0921507C5
:1025B0001092170710921E0710921F071092200703
:1025C0001092210720E041E060E070E0CB01C3C041
:1025D000B1E07B1222C060E270E0C8010E94F920E5
:1025E000801B910B97FD2FC160ED71E0C8010E9427
:1025F000F31C60ED71E080E090E00E94F31C0E940B
:10260000CC1C87FD07C080932607682F89E10E94B4
:10261000DB0C19C18AE392E014C1E2E07E122DC006
:1026200088EA91E00E94D80DD5010D911C91C80156
:102630000E94D80D86E492E00E94D80DF801019026
:102640000020E9F73197E01BF10B389720F486E47E
:1026500092E00E94D80DF501828193810E94C60DFF
:1026600088E492E00E94C60DF4E0AF0EB11C4FA1C9
:1026700058A54A155B05C1F6E6C053E075120CC0BB
:1026800066E372E0C8010E940B2121E0892B09F466
:1026900020E020930601D7C084E0781213C06BE4D9
:1026A00072E0C8010E940B2121E0009709F420E0AC
:1026B00020930301892B11F48FEF01C080E48093F4
:1026C0001907C1C095E0791249C060E572E0C80100
:1026D0000E940B212091BC04892BA9F0211113C069
:1026E000F092D304D8010D900020E9F7CD01801BB2
:1026F000910B0E94D31F9093050180930401B801B0
:102700000E940421A0C0211103C086E592E099C077
:1027100060ED71E0C8010E94F31C60ED71E080E0A3
:1027200090E00E94F31C5C016AE672E0C8010E941E
:102730000B21892B39F060ED71E080E090E00E9480
:10274000F31C5C0140E150E060E070E0C5010E94D4
:10275000B61B21E041E00E942E0975C0B6E07B1255
:102760004BC060E270E0C8010E94F920801B910B11
:1027700097FD69C060ED71E0C8010E94F31C60ED37
:1027800071E080E090E00E94F31C8C01F0927005F3
:1027900082E480939205109271051092930582E273
:1027A00090E00E941C0DF80101900020E9F731979C
:1027B000BF01601B710B8AE796E00E94D304B12C25
:1027C0008B2D0B2C000C990BF80101900020E9F7E0
:1027D0003197E01BF10B8E179F0758F4F801E80FB3
:1027E000F91F8081082E000C990B0E941C0DB394D8
:1027F000E7CF0E946A0D27C08091BC048823F9F0BE
:10280000F092BD04F092700582E4809392051092DC
:1028100071051092930586E290E00E941C0D81E004
:1028200090E00E941C0D0E946A0D8FE692E009C0A4
:102830007394E4E08E0E911CF8E07F1294CE87EB47
:1028400092E00E94D80DE4EDF4E0119224E0E43F20
:10285000F207D9F71092F4048091D304811103C0D8
:102860008DEC91E002C08EEC92E00E94D80D0E94A7
:10287000B90EAB01BC0100911E0710911F072091FA
:1028800020073091210780911A0790911B07A09192
:102890001C07B0911D07800F911FA21FB31F48177F
:1028A00059076A077B0708F4A8C08091170787FDBE
:1028B000A4C040931E0750931F0760932007709396
:1028C000210720911507309116072130310579F144
:1028D000F0F02230310501F12330310509F085C0D7
:1028E00090E1E6E3F1E0DE01119601900D929A95F8
:1028F000E1F7E1E0F0E0EC0FFD1FE80FF11D87FDCF
:10290000FA95E08154E0E502F001112460C044E052
:102910008402F00111245BC0EFE0F0E0E81BF10954
:1029200087FDF395EE0FFF1FEE0FFF1F50C0409184
:1029300011075091120760911307709114078130AD
:1029400069F08230E1F0811123C04093ED0650938D
:10295000EE066093EF067093F00637C04093E906E9
:102960005093EA066093EB067093EC064093F106F1
:102970005093F2066093F3067093F40626C04093DA
:10298000F5065093F6066093F7067093F8061DC09F
:10299000282F082E000C330BE8E0F0E0E21BF30BCD
:1029A000EE0FFF1FEE0FFF1FEF52F94F40835183D1
:1029B00062837383220F331F220F331FF901E35108
:1029C000F94F408351836283738399E00FC0EF52C4
:1029D000F94F4091110750911207609113077091C0
:1029E0001407408351836283738390E18F5F89175B
:1029F0000CF08FEF80931707CAC080912207909147
:102A00002307A0912407B0912507800F911FA21FD3
:102A1000B31F84179507A607B70708F0E0C1809198
:102A200017078F3F09F0DBC18091860690918706DA
:102A30008130910509F0B6C010921E0710921F0751
:102A400010922007109221070E945F1B25E030E0C2
:102A500040E050E00E94911D162F80911807181732
:102A600014F011E0160F109318070E945F1B2FE857
:102A700030E040E050E00E94911D4B015C01A0E776
:102A80008A0E911CA11CB11C0E945F1B2FEF30E02D
:102A900040E050E00E94911D2B013C010E945F1B11
:102AA00020E530E040E050E00E94911D11110EC081
:102AB000762C652C542C4424DC01CB01840D951D0F
:102AC000A61DB71D54019924882453C0113071F4F8
:102AD000320155244424DC01CB01840D951DA61D33
:102AE000B71DBA2CA92C982C882443C0123061F44D
:102AF000B82FA72F962F8827480E591E6A1E7B1EB7
:102B00005401992488241BC0133061F4DB019927F8
:102B10008827480E591E6A1E7B1EBA2CA92C982C99
:102B200088240DC01430C1F4B82FA72F962F882702
:102B3000880E991EAA1EBB1E320155244424840C03
:102B4000951CA61CB71C8092110790921207A092A8
:102B50001307B092140719C01530B9F4762C652C00
:102B6000542C4424840C951CA61CB71CDB0199270B
:102B70008827880D991DAA1DBB1D8093110790936E
:102B80001207A0931307B0931407109217070E941F
:102B9000250C8090110790901207A0901307B09019
:102BA000140720C1029709F01AC140931E075093E1
:102BB0001F0760932007709321078091150790915C
:102BC0001607009739F0029701F58DE097E0E1EDE7
:102BD000F6E00FC0EDE0F7E0B291A2919291829100
:102BE00084839583A683B783B6E0E13DFB07A1F715
:102BF00069C0448155816681778141935193619386
:102C000071938E179F07A9F75FC0EDE0F7E089EF9A
:102C100096E0A1EDB6E014964D915D916D917C9199
:102C200017974D935D936D937D937291629152913D
:102C3000429144835583668377838E179F0759F7A4
:102C40008091F5069091F606A091F706B091F806EE
:102C50008093E5069093E606A093E706B093E80616
:102C60008093F9069093FA06A093FB06B093FC06B6
:102C70008091F1069091F206A091F306B091F406CE
:102C80008093F5069093F606A093F706B093F806A6
:102C90008091ED069091EE06A091EF06B091F006BE
:102CA0008093F1069093F206A093F306B093F40696
:102CB0008093E9069093EA06A093EB06B093EC06A6
:102CC00007E003C000E001C00FE0E4E00E9F8001D8
:102CD0001124F801EF52F94F80819181A281B381D3
:102CE0000097A105B10561F08A2E912CA12CB12C81
:102CF000492F50E060E070E09927AA27BB270CC05D
:102D00001092180780E090E0DC0140E050E0BA014A
:102D1000812C912C54018A9420911807211115C0FF
:102D2000FFE08F1A9108A108B108415F5F4F6F4F14
:102D30007F4F181419041A041B0494F1F092180719
:102D4000480D591D6A1D7B1D2BC02130A1F44F5029
:102D50005109610971090F96A11DB11D14161506BF
:102D600016061706ECF022E020931807840F951F33
:102D7000A61FB71F15C0223099F40F97A109B109FA
:102D80002FE0820E911CA11CB11C181619061A0600
:102D90001B0634F010921807880E991EAA1EBB1E3F
:102DA0000F52194F540199248824762F652F542FE0
:102DB0004427480D591D6A1D7B1D840F951FA61FB2
:102DC000B71FBB27F80180839183A283B3830E943E
:102DD000250CD8018D909D90AD90BC9003C0812CA6
:102DE000912C54018091860690918706892B19F4C5
:102DF0004091070101C040E08091BE04811103C0F1
:102E00008091070101C080E061E00E948909809102
:102E1000860690918706892B21F08091BE04882335
:102E200021F080910701811104C010928706109251
:102E300086068091860690918706892B71F0809195
:102E4000BD04882351F080910601882331F020E0F1
:102E500040E0C501B4010E942E090E943A04E2C973
:102E6000E0910201EF3FB1F51092020162ED71E0D5
:102E700083EC94E00E940421809084079090850761
:102E8000A0908607B09087070E94C50C83EC94E061
:102E90009093280780932707809284079092850754
:102EA000A0928607B0928707109288071092890730
:102EB00010928A0710928B0710927E07F0927F077C
:102EC00083E0809380078FEF9FEF909301018093C1
:102ED000000199CAAB2849F5209100013091010108
:102EE0002F3FFFEF3F0739F4E150E7FFF9C1815071
:102EF00080930201F7C1EE0FFF0BEE5AFE4F818166
:102F0000A901481B510987FD539550930101409336
:102F1000000157FF3BC08081082E000C990B0197E0
:102F2000909301018093000131C0892809F0D4C138
:102F300020910001309101012F3F5FEF350751F4DF
:102F4000EF5FE8170CF4CCC110920201012B09F0DD
:102F50003EC02DC0EE0FFF0BEE5AFE4F8181D9010E
:102F6000A80FB11D87FDBA95B0930101A093000190
:102F70002081022E000C330BA217B3073CF01092F5
:102F8000010110920001012BE1F05BC0012BF9F46B
:102F90008091000190910101019699F480910201C4
:102FA000823009F469C10CF062C181115AC180916B
:102FB000260790E0019738F4109201011092000169
:102FC00006C08FEF9FEF9093010180930001009165
:102FD0000001109101010F3FFFEF1F07A1F5E091E4
:102FE0000201EE0FFF0BE45AFE4F6081718183EC0A
:102FF00094E00E9404218090840790908507A0901F
:103000008607B09087070E94C50C83EC94E09093EC
:103010002807809327078092840790928507A092C3
:103020008607B0928707109288071092890710923E
:103030008A0710928B0710927E07F0927F0783E039
:103040000BC100E010E08091020181110FC061E02E
:10305000600F6093260789E10E94DB0C4AE063EC75
:1030600074E0C80101960E941F1DD1C0813049F44F
:103070000115110509F480E080930601012B49F147
:103080002BC0823061F581E00115110509F480E063
:1030900080930701012B01F510921107109212077E
:1030A0001092130710921407D0921607C0921507BA
:1030B0001092170710921E0710921F0710922007F8
:1030C0001092210720E041E060E070E0CB010E9417
:1030D0002E096DE971E097C06AE971E094C0833010
:1030E00011F589A59AA5ABA5BCA589839A83AB8365
:1030F000BC8381E00115110509F080E08093030194
:103100000115110511F480E401C08FEF80931907B8
:10311000000F111FE1E0F0E0EC0FFD1FE00FF11FC9
:103120006081718170C0843009F071C086E0E6E48E
:10313000F1E0DE01919601900D928A95E1F786E02B
:10314000ECE4F1E0DE01119601900D928A95E1F731
:10315000000F111FE1E0F0E0EC0FFD1FE00FF11F89
:103160008081918182309105D9F48FEF8093180787
:10317000E1EDF6E011921192119211922E163F0696
:10318000C9F7A2E0B0E0B0938706A0938606D0927C
:103190001607C092150781E090E0A0E0B0E00FC0F4
:1031A00083309105A9F4D0928706C0928606D0920A
:1031B0001607C092150784EF91E0A0E0B0E080937D
:1031C000220790932307A0932407B093250708C0F4
:1031D0009093870680938606D0921607C0921507B3
:1031E00010921E0710921F071092200710922107BD
:1031F0008FEF80931707E1E0F0E0EC0FFD1FE00F89
:10320000F11F60A171A183EC94E00E9404218090E1
:10321000840790908507A0908607B09087070E944A
:10322000C50C83EC94E09093280780932707809245
:10323000840790928507A0928607B0928707109224
:1032400088071092890710928A0710928B071092B4
:103250007E07F0927F0785E080938007D4C884E0E2
:10326000C6C8813009F0B3CE809106010BC083300F
:1032700031F0843049F0ABCE8091070103C08091DA
:1032800003018F2590E09FCE86E0ECE4F1E0DE01C3
:10329000119601900D928A95E1F720918606309162
:1032A0008706809100019091010149815A8124177C
:1032B000350711F480E090E04B815C8142175307A1
:1032C00011F481E090E04D815E814217530709F0CF
:1032D0007ACE82E090E077CE012B09F094C858CEE8
:1032E000E0930201012B09F072CE58CE8AE896E0F5
:1032F0000E9407098BE297E00E9407098CE897E09B
:103300000C9407092F923F924F925F926F927F9297
:103310008F929F92AF92BF92CF92DF92EF92FF92E5
:103320000F931F93CF93DF93CDB7DEB7CB54D10963
:103330000FB6F894DEBF0FBECDBFEDEDF5E0138202
:10334000128288EE882E83E0982EA12CB12C8482E4
:103350009582A682B7828AE691E09183808385EC8C
:1033600090E09587848784EC90E09787868780EC4F
:1033700090E0918B808B81EC90E0938B828B82EC40
:1033800090E0958B848B86EC90E0978B868B118EEA
:10339000128E138E148EEAE7F6E013821282848274
:1033A0009582A682B7828AE791E0918380830CE8B8
:1033B00017E0F8011382128284829582A682B78276
:1033C0009AE8E92E91E0F92EF182E08225E0422E82
:1033D000448636E0532E5586178E6624639460A289
:1033E00081E090E0968F858F81A292A2A3A2B4A2E1
:1033F000EDE2F6E08491E2E1F6E0C490F801C686E1
:1034000090E0880F991FFC01EF5FF94FA591B491EF
:10341000F801B18BA08BFC01EB50FA4F4591549110
:10342000F801558B448BFC01E751FA4F25903490FD
:10343000F801318E208EEEE2F6E08491E3E1F6E0D1
:10344000D490F801D78690E0880F991FFC01EF5FB8
:10345000F94F65917491F801738B628BFC01EB500D
:10346000FA4F25913491F801378B268BFC01E751F7
:10347000FA4F85919491F801938F828F1C821B8261
:103480008D829E82AF82B886408451846284738428
:1034900049865A866B867C86FA82E982F5E0FD874A
:1034A000E6E04E2E4E86CF86D88ABA8BA98B7C8BCF
:1034B0006B8B5E8B4D8B388F2F8B3A8E298E9C8F2A
:1034C0008B8FF801848D8D8F44244394512C5F8E13
:1034D0004E8E18A25524539459A28AA29BA2ACA244
:1034E000BDA280E2E1EBF7E0DE01969601900D923D
:1034F0008A95E1F7A1EDAA2EA7E0BA2EF501808109
:1035000027968FAF2797B2EDCB2EB7E0DB2EF601D3
:10351000808128968FAF289767E0CE0101960E94A0
:103520007C0BCE0101960E940709F80182819381EC
:103530009C838B8384819581A681B7818D839E83B3
:10354000AF83B88780859185A285B38589879A875F
:10355000AB87BC87FA82E98284858D8785858E87D3
:1035600086858F878785888B808991899A8B898BBF
:10357000828993899C8B8B8B848995899E8B8D8B7B
:1035800086899789988F8F8B808D918D9A8F898F5F
:10359000828D938D9C8F8B8F848D8D8F858D968D55
:1035A0009F8F8E8F878D88A380A189A381A192A1EF
:1035B000A3A1B4A18AA39BA3ACA3BDA380E2E1EB2A
:1035C000F7E0DE01969601900D928A95E1F7F501FC
:1035D000808127968FAF2797F601808128968FAF3D
:1035E000289768E0CE0101960E943F0ECE01019619
:1035F0000E940709C55BDF4F0FB6F894DEBF0FBE10
:10360000CDBFDF91CF911F910F91FF90EF90DF9091
:10361000CF90BF90AF909F908F907F906F905F9072
:103620004F903F902F9008958F929F92AF92BF92AC
:10363000CF92DF92EF92FF92CF93DF93EC016881FC
:1036400079818A819B81611571058105910521F43C
:1036500064E279ED8BE597E02DE133EF41E050E056
:103660000E94911D49015A019B01AC01A7EAB1E4F6
:103670000E94B01D6B017C01ACEEB4EFA50194017A
:103680000E94BE1DDC01CB018C0D9D1DAE1DBF1D1A
:10369000B7FF03C00197A109B04888839983AA8323
:1036A000BB83BC01CD019F77DF91CF91FF90EF905D
:1036B000DF90CF90BF90AF909F908F9008958F92A2
:1036C0009F92AF92BF92CF92DF92EF92FF92609162
:1036D00008017091090180910A0190910B01611517
:1036E00071058105910521F464E279ED8BE597E0A0
:1036F0002DE133EF41E050E00E94911D49015A0154
:103700009B01AC01A7EAB1E40E94B01D6B017C01F2
:10371000ACEEB4EFA50194010E94BE1DDC01CB010B
:103720008C0D9D1DAE1DBF1DB7FF03C00197A109E4
:10373000B0488093080190930901A0930A01B093C7
:103740000B01BC01CD019F77FF90EF90DF90CF90F0
:10375000BF90AF909F908F900895609308017093F1
:10376000090180930A0190930B010895A0E0B0E055
:10377000ECEBFBE10C94C41D5C016B017A0161155B
:10378000710519F0FB0191838083E114F10429F0A4
:10379000C7010297839708F0E5C0E5012196F5017E
:1037A0001081812F90E00E94EA1C892B11F05E01AC
:1037B000F4CF1D3229F42196F501118101E007C0F3
:1037C0001B3221F4E5012296F501118100E0E1149C
:1037D000F10409F1F0E1EF16F10429F43FC010E320
:1037E000E114F10421F128E0E216F10401F154F4AE
:1037F000E2E0EE16F10421F5812C912CA12CB0E42D
:10380000BB2E3EC0FAE0EF16F10439F020E1E216DB
:10381000F104B1F430C0103319F1FAE0EF2EF12CBD
:10382000ACEC8A2E982CA82CACE0BA2E29C078E0FB
:10383000E72EF12C812C912CA12CE0E1BE2E20C092
:1038400060E070E080E090E897010F2C000C440BE2
:10385000550B0E946F1D49015A0112C0103359F4D3
:1038600088818F7D883509F0BACF19812296026050
:1038700080E1E82EF12C812C912CA12C68E0B62E51
:1038800040E060E070E0CB0127010F2C000C6608DF
:103890007708FE0150ED352E310E29E0231570F426
:1038A0002FEB210F2A3118F439EC332E06C02FE903
:1038B000210F2A3118F529EA322E310E232D30E05E
:1038C0002E153F05DCF447FD16C086169706A806A0
:1038D000B90670F0A30192010E945F1D630D711D76
:1038E000811D911D61307105810520E8920710F05E
:1038F0004FEF01C041E021961081CBCF202F2170E6
:10390000C114D10471F0442329F02197F601D18329
:10391000C08307C001FF19C02297F601D183C0837D
:1039200014C047FF12C0222329F060E070E080E05D
:1039300090E804C06FEF7FEF8FEF9FE722E230E067
:103940003093D7072093D60709C0222381F09095A2
:103950008095709561957F4F8F4F9F4F462F372FE2
:10396000282F12C040E030E020E090E00DC097FF2B
:10397000F5CF82E290E09093D7078093D6076FEF60
:103980007FEF8FEF9FE7EACF642F732F822FCDB7A2
:10399000DEB7E1E10C94E01DFC0188279927E8944B
:1039A00021912032E9F3293010F02E30C8F32B3268
:1039B00041F02D3239F4689404C00E942A1D820F10
:1039C000911D219120532A30C0F31EF490958195CA
:1039D0009F4F089591110C944C1D803219F089501D
:1039E0008550C8F7089544ED57E00E94F81C0895EB
:1039F000FA01A191B081009719F41097E1F0CD017F
:103A0000DC01CD010D90002011F4C00113C0FB01B9
:103A10002191222319F02015D9F7F3CFFB01219131
:103A2000201519F41E92119606C02223C1F70D909D
:103A30000020A1F7D001FA01A193B0830895BB271C
:103A40004A3031F4992322F4BDE2909581959F4F3D
:103A50000C94331D7AE0979F902D879F802D910DB8
:103A600011240895BB27FB015527AA27880F991F0A
:103A7000AA1FA41710F0A41B83955051B9F7A05D9D
:103A8000AA3308F0A95DA193009779F7B111B1931A
:103A90001192CB010C944F1D992788270895DC01C2
:103AA000FC01672F71917723E1F7329704C07C9175
:103AB0006D9370836291AE17BF07C8F30895DB0161
:103AC0008F939F930E94B01DBF91AF91A29F800DD5
:103AD000911DA39F900DB29F900D11240895A1E216
:103AE0001A2EAA1BBB1BFD010DC0AA1FBB1FEE1F78
:103AF000FF1FA217B307E407F50720F0A21BB30BC3
:103B0000E40BF50B661F771F881F991F1A9469F73E
:103B100060957095809590959B01AC01BD01CF019A
:103B20000895052E97FB1EF400940E94A81D57FDD2
:103B300007D00E946F1D07FC03D04EF40C94A81D03
:103B400050954095309521953F4F4F4F5F4F0895C9
:103B500090958095709561957F4F8F4F9F4F0895F9
:103B60000E94FA1DA59F900DB49F900DA49F800DFB
:103B7000911D11240895B7FF0C94B01D0E94B01D33
:103B8000821B930B08952F923F924F925F926F92F8
:103B90007F928F929F92AF92BF92CF92DF92EF92DD
:103BA000FF920F931F93CF93DF93CDB7DEB7CA1B5E
:103BB000DB0B0FB6F894DEBF0FBECDBF09942A8889
:103BC000398848885F846E847D848C849B84AA8431
:103BD000B984C884DF80EE80FD800C811B81AA81BE
:103BE000B981CE0FD11D0FB6F894DEBF0FBECDBF89
:103BF000ED010895A29FB001B39FC001A39F700D76
:103C0000811D1124911DB29F700D811D1124911DE4
:103C100008950E941D1E0C94FE1E0E94F71E58F06F
:103C20000E94F01E40F029F45F3F29F00C94E71E3B
:103C300051110C94321F0C94ED1E0E940F1F68F35B
:103C40009923B1F3552391F3951B550BBB27AA2755
:103C500062177307840738F09F5F5F4F220F331F8F
:103C6000441FAA1FA9F335D00E2E3AF0E0E832D057
:103C700091505040E695001CCAF72BD0FE2F29D05A
:103C8000660F771F881FBB1F261737074807AB072C
:103C9000B0E809F0BB0B802DBF01FF2793585F4FA1
:103CA0003AF09E3F510578F00C94E71E0C94321FB9
:103CB0005F3FE4F3983ED4F3869577956795B79583
:103CC000F7959F5FC9F7880F911D9695879597F98E
:103CD0000895E1E0660F771F881FBB1F6217730707
:103CE0008407BA0720F0621B730B840BBA0BEE1F1C
:103CF00088F7E09508950E94171F88F09F5798F065
:103D0000B92F9927B751B0F0E1F0660F771F881FE0
:103D1000991F1AF0BA95C9F714C0B13091F00E94FA
:103D2000311FB1E008950C94311F672F782F882739
:103D3000B85F39F0B93FCCF3869577956795B39521
:103D4000D9F73EF490958095709561957F4F8F4F90
:103D50009F4F0895E89409C097FB3EF49095809595
:103D6000709561957F4F8F4F9F4F9923A9F0F92F41
:103D700096E9BB279395F695879577956795B795BF
:103D8000F111F8CFFAF4BB0F11F460FF1BC06F5FA5
:103D90007F4F8F4F9F4F16C0882311F096E911C0B7
:103DA000772321F09EE8872F762F05C0662371F0D8
:103DB00096E8862F70E060E02AF09A95660F771FEC
:103DC000881FDAF7880F9695879597F9089597F9E0
:103DD0009F6780E870E060E008959FEF80EC0895B1
:103DE00000240A94161617061806090608950024DA
:103DF0000A9412161306140605060895092E039454
:103E0000000C11F4882352F0BB0F40F4BF2B11F4C7
:103E100060FF04C06F5F7F4F8F4F9F4F089557FD26
:103E20009058440F551F59F05F3F71F04795880F28
:103E300097FB991F61F09F3F79F0879508951216BF
:103E400013061406551FF2CF4695F1DF08C016166B
:103E500017061806991FF1CF86957105610508941C
:103E60000895E894BB2766277727CB0197F9089533
:103E70000E944B1F0C94FE1E0E94F01E38F00E9400
:103E8000F71E20F0952311F00C94E71E0C94ED1E04
:103E900011240C94321F0E940F1F70F3959FC1F3E1
:103EA000950F50E0551F629FF001729FBB27F00DE8
:103EB000B11D639FAA27F00DB11DAA1F649F66273D
:103EC000B00DA11D661F829F2227B00DA11D621F8C
:103ED000739FB00DA11D621F839FA00D611D221F46
:103EE000749F3327A00D611D231F849F600D211D2A
:103EF000822F762F6A2F11249F5750409AF0F1F0AD
:103F000088234AF0EE0FFF1FBB1F661F771F881F15
:103F100091505040A9F79E3F510580F00C94E71E48
:103F20000C94321F5F3FE4F3983ED4F38695779567
:103F30006795B795F795E7959F5FC1F7FE2B880FBB
:103F4000911D9695879597F9089597FB072E16F47E
:103F5000009407D077FD09D00E94BF1F07FC05D051
:103F60003EF4909581959F4F0895709561957F4F90
:103F70000895EE0FFF1F0590F491E02D0994AA1B00
:103F8000BB1B51E107C0AA1FBB1FA617B70710F044
:103F9000A61BB70B881F991F5A95A9F78095909576
:103FA000BC01CD0108950F931F93CF93DF9382300F
:103FB000910510F482E090E0E091DA07F091DB07E0
:103FC00020E030E0A0E0B0E0309719F1408151816D
:103FD0000281138148175907C8F08417950769F4BF
:103FE000109731F012960C93129713961C9327C0DA
:103FF0000093DA071093DB0722C02115310519F071
:104000004217530718F49A01BD01EF01DF01F801CF
:10401000DBCF21153105F9F0281B390B2430310590
:1040200080F48A819B816115710521F0FB019383E6
:10403000828304C09093DB078093DA07FE013296F7
:1040400044C0FE01E20FF31F819391932250310986
:10405000398328833AC02091D8073091D907232B80
:1040600041F420910E0130910F013093D907209334
:10407000D80720910C0130910D012115310541F433
:104080002DB73EB74091100150911101241B350B03
:10409000E091D807F091D907E217F307A0F42E1B9F
:1040A0003F0B2817390778F0AC014E5F5F4F24179C
:1040B000350748F04E0F5F1F5093D9074093D8073C
:1040C0008193919302C0E0E0F0E0CF01DF91CF91C6
:1040D0001F910F910895CF93DF93009709F481C04A
:1040E000FC01329713821282A091DA07B091DB07AC
:1040F000109781F420813181820F931F2091D8077E
:104100003091D9072817390751F5F093D907E09373
:10411000D80767C0ED0120E030E0CE17DF0740F49C
:104120004A815B819E0141155105F1F0EA01F5CF0D
:10413000D383C28340815181840F951FC817D9074B
:1041400059F488819981840F951F02969183808309
:104150008A819B81938382832115310529F4F09311
:10416000DB07E093DA073DC0E901FB83EA8349916D
:104170005991C40FD51FEC17FD0761F4808191811F
:10418000840F951F0296E901998388838281938128
:104190009B838A83E0E0F0E012968D919C911397C7
:1041A000009719F0FD01DC01F7CF8D919C911197DB
:1041B0009D012E5F3F4F820F931F2091D8073091B2
:1041C000D9072817390769F4309729F41092DB07CB
:1041D0001092DA0702C013821282B093D907A0931B
:1041E000D807DF91CF91089581E090E0F8940C9486
:1041F0002521FC018191861721F08823D9F7992781
:1042000008953197CF010895FB01DC0101900D92D3
:104210000020E1F70895FB0151915523A9F0BF015A
:10422000DC014D9145174111E1F759F4CD010190A1
:10423000002049F04D9140154111C9F3FB01411196
:10424000EFCF81E090E00197089513E0C3E2D3E05F
:1042500004C0FE010E94B91F2196C432D107C9F7DC
:04426000F894FFCF00
:10426400FFFFFF01E0010101010000000000DC0785
:104274008000DB02DF02E402EE021C03270360037A
:10428400E00165036E03B403BF0301040B043604A9
:1042940041046704E00109020F060A0007030D0543
:1042A4000B080E010C04730478048404000001005C
:1042B40002007F040201020102010301D2018C0405
:1042C4009604A104AC0400000000D1034E039A0339
:1042D40078038C03180400000000D304A6049E0491
:1042E4008A047B047A04000000003106A6042B052E
:1042F40002051A057A04080705064F6E004F666624
:10430400000A0A0A0A0A0A0A0A0D00477265657455
:10431400696E67732050726F6772616D000A0D5089
:104324007265737320616E79206B65792E0A0D2492
:1043340020004272696768746E6573730008200810
:10434400005245494E4445455220464C4F54494C31
:104354004C41000D0A556E6C6F636B696E67205398
:1043640074616765204F6E6521000A0D496E7661A0
:104374006C69642050617373776F7264000A0D5422
:104384006F206D616E79206661696C65642061746B
:1043940074656D707300206F6E000A0D42616420B5
:1043A40076616C75650009000D0A00206C6F77005A
:1043B4007375646F20000A0D5065726D69737369BB
:1043C4006F6E2064656E696564007375646F000ABE
:1043D4000D556E6C6F636B65642053746167652063
:1043E40054776F210A0D576520646F20696E6465E8
:1043F4006564206861766520696E206F7572206D32
:104404006964737420612055534552210A0D596F14
:10441400752057696E21000A0D556E7265636F67CA
:104424006E697A656420636F6D6D616E64000A0D58
:1044340050617373776F72643A20004C6F77004851
:10444400696768006261636B6C6967687400546FC4
:1044540067676C6520746865206261636B6C69676B
:104464006874732E0A0D09096261636B6C6967686D
:1044740074207B6F6E2C206F66667D0062726967A4
:1044840068746E6573730053657420746865206284
:1044940072696768746E657373206F6620746865EB
:1044A40020646973706C61792E0A0D09096272695E
:1044B4006768746E657373205B302D3132375D002D
:1044C40068656C70006932632D636F6D6D00546FA5
:1044D40067676C6520693263206265747765656E11
:1044E4002074686520626164676520616E64206978
:1044F40064656E74697479206469736B2E0A0D099E
:10450400096932632D636F6D6D207B6F6E2C206F94
:1045140066667D00706F7765722D6D6F64650054FB
:104524006F67676C6520746865206C696D697420B9
:104534006F6E20746865206261636B6C6967687470
:10454400204C4544732E0A0D0909706F7765722D4E
:104554006D6F6465207B6C6F772C20686967687D5C
:10456400007365742D636F6C6F72005365747320F0
:10457400616E642073617665732074686520636F6F
:104584006C6F722E0A0D09097365742D636F6C6F5D
:104594007220484558007365742D68616E646C65BB
:1045A4000053657420796F75722068616E646C6560
:1045B4002E0A0D09097365742D68616E646C65209B
:1045C40048616E646C65007375206261636B646F2F
:1045D4006F72004E6F6E650052616E646F6D20469F
:1045E400696C6C005261696E626F77004261636B43
:1045F4006C69676874004932432041637469766565
:1046040000506F776572204D6F6465004C69676870
:08461400742053686F77000069
:00000001FF
